{
  "contractName": "TronMatrix",
  "abi": [
    {
      "constant": true,
      "inputs": [],
      "name": "creator",
      "outputs": [
        {
          "name": "",
          "type": "address"
        }
      ],
      "payable": false,
      "stateMutability": "view",
      "type": "function"
    },
    {
      "constant": true,
      "inputs": [
        {
          "name": "",
          "type": "address"
        }
      ],
      "name": "profitsLost",
      "outputs": [
        {
          "name": "uid",
          "type": "uint256"
        }
      ],
      "payable": false,
      "stateMutability": "view",
      "type": "function"
    },
    {
      "constant": true,
      "inputs": [],
      "name": "name",
      "outputs": [
        {
          "name": "",
          "type": "string"
        }
      ],
      "payable": false,
      "stateMutability": "view",
      "type": "function"
    },
    {
      "constant": true,
      "inputs": [],
      "name": "levelDown",
      "outputs": [
        {
          "name": "",
          "type": "uint256"
        }
      ],
      "payable": false,
      "stateMutability": "view",
      "type": "function"
    },
    {
      "constant": true,
      "inputs": [],
      "name": "totalSupply",
      "outputs": [
        {
          "name": "",
          "type": "uint256"
        }
      ],
      "payable": false,
      "stateMutability": "view",
      "type": "function"
    },
    {
      "constant": true,
      "inputs": [
        {
          "name": "",
          "type": "address"
        }
      ],
      "name": "balances",
      "outputs": [
        {
          "name": "",
          "type": "uint256"
        }
      ],
      "payable": false,
      "stateMutability": "view",
      "type": "function"
    },
    {
      "constant": true,
      "inputs": [],
      "name": "rate",
      "outputs": [
        {
          "name": "",
          "type": "uint256"
        }
      ],
      "payable": false,
      "stateMutability": "view",
      "type": "function"
    },
    {
      "constant": true,
      "inputs": [],
      "name": "decimals",
      "outputs": [
        {
          "name": "",
          "type": "uint256"
        }
      ],
      "payable": false,
      "stateMutability": "view",
      "type": "function"
    },
    {
      "constant": true,
      "inputs": [
        {
          "name": "",
          "type": "uint256"
        }
      ],
      "name": "userAddresses",
      "outputs": [
        {
          "name": "",
          "type": "address"
        }
      ],
      "payable": false,
      "stateMutability": "view",
      "type": "function"
    },
    {
      "constant": true,
      "inputs": [],
      "name": "referralLimit",
      "outputs": [
        {
          "name": "",
          "type": "uint256"
        }
      ],
      "payable": false,
      "stateMutability": "view",
      "type": "function"
    },
    {
      "constant": true,
      "inputs": [],
      "name": "maxTokenAmount",
      "outputs": [
        {
          "name": "",
          "type": "uint256"
        }
      ],
      "payable": false,
      "stateMutability": "view",
      "type": "function"
    },
    {
      "constant": true,
      "inputs": [],
      "name": "owner",
      "outputs": [
        {
          "name": "",
          "type": "address"
        }
      ],
      "payable": false,
      "stateMutability": "view",
      "type": "function"
    },
    {
      "constant": true,
      "inputs": [],
      "name": "symbol",
      "outputs": [
        {
          "name": "",
          "type": "string"
        }
      ],
      "payable": false,
      "stateMutability": "view",
      "type": "function"
    },
    {
      "constant": true,
      "inputs": [
        {
          "name": "",
          "type": "address"
        }
      ],
      "name": "profitsReceived",
      "outputs": [
        {
          "name": "uid",
          "type": "uint256"
        }
      ],
      "payable": false,
      "stateMutability": "view",
      "type": "function"
    },
    {
      "constant": true,
      "inputs": [
        {
          "name": "",
          "type": "address"
        }
      ],
      "name": "users",
      "outputs": [
        {
          "name": "id",
          "type": "uint256"
        },
        {
          "name": "referrerID",
          "type": "uint256"
        },
        {
          "name": "created",
          "type": "uint256"
        }
      ],
      "payable": false,
      "stateMutability": "view",
      "type": "function"
    },
    {
      "constant": true,
      "inputs": [],
      "name": "levelExpireTime",
      "outputs": [
        {
          "name": "",
          "type": "uint256"
        }
      ],
      "payable": false,
      "stateMutability": "view",
      "type": "function"
    },
    {
      "constant": true,
      "inputs": [
        {
          "name": "",
          "type": "uint256"
        }
      ],
      "name": "levelPrice",
      "outputs": [
        {
          "name": "",
          "type": "uint256"
        }
      ],
      "payable": false,
      "stateMutability": "view",
      "type": "function"
    },
    {
      "constant": true,
      "inputs": [
        {
          "name": "",
          "type": "uint256"
        }
      ],
      "name": "incentive",
      "outputs": [
        {
          "name": "",
          "type": "uint256"
        }
      ],
      "payable": false,
      "stateMutability": "view",
      "type": "function"
    },
    {
      "constant": true,
      "inputs": [],
      "name": "contractStatus",
      "outputs": [
        {
          "name": "",
          "type": "bool"
        }
      ],
      "payable": false,
      "stateMutability": "view",
      "type": "function"
    },
    {
      "constant": true,
      "inputs": [],
      "name": "maxLevel",
      "outputs": [
        {
          "name": "",
          "type": "uint256"
        }
      ],
      "payable": false,
      "stateMutability": "view",
      "type": "function"
    },
    {
      "constant": true,
      "inputs": [],
      "name": "last_uid",
      "outputs": [
        {
          "name": "",
          "type": "uint256"
        }
      ],
      "payable": false,
      "stateMutability": "view",
      "type": "function"
    },
    {
      "constant": true,
      "inputs": [
        {
          "name": "",
          "type": "uint256"
        }
      ],
      "name": "uplines",
      "outputs": [
        {
          "name": "",
          "type": "uint256"
        }
      ],
      "payable": false,
      "stateMutability": "view",
      "type": "function"
    },
    {
      "inputs": [],
      "payable": false,
      "stateMutability": "nonpayable",
      "type": "constructor"
    },
    {
      "payable": true,
      "stateMutability": "payable",
      "type": "fallback"
    },
    {
      "anonymous": false,
      "inputs": [
        {
          "indexed": true,
          "name": "user",
          "type": "address"
        },
        {
          "indexed": true,
          "name": "referrer",
          "type": "address"
        },
        {
          "indexed": false,
          "name": "time",
          "type": "uint256"
        }
      ],
      "name": "RegisterUserEvent",
      "type": "event"
    },
    {
      "anonymous": false,
      "inputs": [
        {
          "indexed": true,
          "name": "user",
          "type": "address"
        },
        {
          "indexed": true,
          "name": "level",
          "type": "uint256"
        },
        {
          "indexed": false,
          "name": "time",
          "type": "uint256"
        }
      ],
      "name": "BuyLevelEvent",
      "type": "event"
    },
    {
      "anonymous": false,
      "inputs": [
        {
          "indexed": true,
          "name": "user",
          "type": "address"
        },
        {
          "indexed": true,
          "name": "referral",
          "type": "address"
        },
        {
          "indexed": true,
          "name": "level",
          "type": "uint256"
        },
        {
          "indexed": false,
          "name": "time",
          "type": "uint256"
        }
      ],
      "name": "GetLevelProfitEvent",
      "type": "event"
    },
    {
      "anonymous": false,
      "inputs": [
        {
          "indexed": true,
          "name": "user",
          "type": "address"
        },
        {
          "indexed": true,
          "name": "referral",
          "type": "address"
        },
        {
          "indexed": true,
          "name": "level",
          "type": "uint256"
        },
        {
          "indexed": false,
          "name": "time",
          "type": "uint256"
        }
      ],
      "name": "LostLevelProfitEvent",
      "type": "event"
    },
    {
      "anonymous": false,
      "inputs": [
        {
          "indexed": false,
          "name": "from",
          "type": "address"
        },
        {
          "indexed": false,
          "name": "to",
          "type": "address"
        },
        {
          "indexed": false,
          "name": "amount",
          "type": "uint256"
        },
        {
          "indexed": false,
          "name": "time",
          "type": "uint256"
        }
      ],
      "name": "Transfer",
      "type": "event"
    },
    {
      "constant": false,
      "inputs": [
        {
          "name": "newValue",
          "type": "uint256"
        }
      ],
      "name": "changeLevelPrice1",
      "outputs": [],
      "payable": false,
      "stateMutability": "nonpayable",
      "type": "function"
    },
    {
      "constant": false,
      "inputs": [
        {
          "name": "newValue",
          "type": "uint256"
        }
      ],
      "name": "changeLevelPrice2",
      "outputs": [],
      "payable": false,
      "stateMutability": "nonpayable",
      "type": "function"
    },
    {
      "constant": false,
      "inputs": [
        {
          "name": "newValue",
          "type": "uint256"
        }
      ],
      "name": "changeLevelPrice3",
      "outputs": [],
      "payable": false,
      "stateMutability": "nonpayable",
      "type": "function"
    },
    {
      "constant": false,
      "inputs": [
        {
          "name": "newValue",
          "type": "uint256"
        }
      ],
      "name": "changeLevelPrice4",
      "outputs": [],
      "payable": false,
      "stateMutability": "nonpayable",
      "type": "function"
    },
    {
      "constant": false,
      "inputs": [
        {
          "name": "newValue",
          "type": "uint256"
        }
      ],
      "name": "changeLevelPrice5",
      "outputs": [],
      "payable": false,
      "stateMutability": "nonpayable",
      "type": "function"
    },
    {
      "constant": false,
      "inputs": [
        {
          "name": "newValue",
          "type": "uint256"
        }
      ],
      "name": "changeLevelPrice6",
      "outputs": [],
      "payable": false,
      "stateMutability": "nonpayable",
      "type": "function"
    },
    {
      "constant": false,
      "inputs": [
        {
          "name": "newValue",
          "type": "uint256"
        }
      ],
      "name": "changeUplines1",
      "outputs": [],
      "payable": false,
      "stateMutability": "nonpayable",
      "type": "function"
    },
    {
      "constant": false,
      "inputs": [
        {
          "name": "newValue",
          "type": "uint256"
        }
      ],
      "name": "changeUplines2",
      "outputs": [],
      "payable": false,
      "stateMutability": "nonpayable",
      "type": "function"
    },
    {
      "constant": false,
      "inputs": [
        {
          "name": "newValue",
          "type": "uint256"
        }
      ],
      "name": "changeUplines3",
      "outputs": [],
      "payable": false,
      "stateMutability": "nonpayable",
      "type": "function"
    },
    {
      "constant": false,
      "inputs": [
        {
          "name": "newValue",
          "type": "uint256"
        }
      ],
      "name": "changeUplines4",
      "outputs": [],
      "payable": false,
      "stateMutability": "nonpayable",
      "type": "function"
    },
    {
      "constant": false,
      "inputs": [
        {
          "name": "newValue",
          "type": "uint256"
        }
      ],
      "name": "changeUplines5",
      "outputs": [],
      "payable": false,
      "stateMutability": "nonpayable",
      "type": "function"
    },
    {
      "constant": false,
      "inputs": [
        {
          "name": "newValue",
          "type": "uint256"
        }
      ],
      "name": "changeUplines6",
      "outputs": [],
      "payable": false,
      "stateMutability": "nonpayable",
      "type": "function"
    },
    {
      "constant": false,
      "inputs": [
        {
          "name": "newValue",
          "type": "uint256"
        }
      ],
      "name": "changeIncentive1",
      "outputs": [],
      "payable": false,
      "stateMutability": "nonpayable",
      "type": "function"
    },
    {
      "constant": false,
      "inputs": [
        {
          "name": "newValue",
          "type": "uint256"
        }
      ],
      "name": "changeIncentive2",
      "outputs": [],
      "payable": false,
      "stateMutability": "nonpayable",
      "type": "function"
    },
    {
      "constant": false,
      "inputs": [
        {
          "name": "newValue",
          "type": "uint256"
        }
      ],
      "name": "changeIncentive3",
      "outputs": [],
      "payable": false,
      "stateMutability": "nonpayable",
      "type": "function"
    },
    {
      "constant": false,
      "inputs": [
        {
          "name": "newValue",
          "type": "uint256"
        }
      ],
      "name": "changeIncentive4",
      "outputs": [],
      "payable": false,
      "stateMutability": "nonpayable",
      "type": "function"
    },
    {
      "constant": false,
      "inputs": [
        {
          "name": "newValue",
          "type": "uint256"
        }
      ],
      "name": "changeIncentive5",
      "outputs": [],
      "payable": false,
      "stateMutability": "nonpayable",
      "type": "function"
    },
    {
      "constant": false,
      "inputs": [
        {
          "name": "newValue",
          "type": "uint256"
        }
      ],
      "name": "changeIncentive6",
      "outputs": [],
      "payable": false,
      "stateMutability": "nonpayable",
      "type": "function"
    },
    {
      "constant": false,
      "inputs": [
        {
          "name": "newValue",
          "type": "bool"
        }
      ],
      "name": "changeContractStatus",
      "outputs": [],
      "payable": false,
      "stateMutability": "nonpayable",
      "type": "function"
    },
    {
      "constant": false,
      "inputs": [
        {
          "name": "newValue",
          "type": "uint256"
        }
      ],
      "name": "changeLevelDown",
      "outputs": [],
      "payable": false,
      "stateMutability": "nonpayable",
      "type": "function"
    },
    {
      "constant": false,
      "inputs": [
        {
          "name": "receiver",
          "type": "address"
        },
        {
          "name": "amount",
          "type": "uint256"
        }
      ],
      "name": "transfer",
      "outputs": [],
      "payable": false,
      "stateMutability": "nonpayable",
      "type": "function"
    },
    {
      "constant": false,
      "inputs": [
        {
          "name": "amount",
          "type": "uint256"
        }
      ],
      "name": "mint",
      "outputs": [],
      "payable": false,
      "stateMutability": "nonpayable",
      "type": "function"
    },
    {
      "constant": true,
      "inputs": [
        {
          "name": "_user",
          "type": "address"
        }
      ],
      "name": "balanceOf",
      "outputs": [
        {
          "name": "",
          "type": "uint256"
        }
      ],
      "payable": false,
      "stateMutability": "view",
      "type": "function"
    },
    {
      "constant": false,
      "inputs": [
        {
          "name": "_referrerID",
          "type": "uint256"
        },
        {
          "name": "randNum",
          "type": "uint256"
        }
      ],
      "name": "registerUser",
      "outputs": [],
      "payable": true,
      "stateMutability": "payable",
      "type": "function"
    },
    {
      "constant": false,
      "inputs": [
        {
          "name": "_level",
          "type": "uint256"
        }
      ],
      "name": "buyLevel",
      "outputs": [],
      "payable": true,
      "stateMutability": "payable",
      "type": "function"
    },
    {
      "constant": true,
      "inputs": [
        {
          "name": "_user",
          "type": "address"
        },
        {
          "name": "traverseDown",
          "type": "bool"
        },
        {
          "name": "randNum",
          "type": "uint256"
        }
      ],
      "name": "findReferrer",
      "outputs": [
        {
          "name": "",
          "type": "address"
        }
      ],
      "payable": false,
      "stateMutability": "view",
      "type": "function"
    },
    {
      "constant": true,
      "inputs": [
        {
          "name": "_user",
          "type": "address"
        },
        {
          "name": "height",
          "type": "uint256"
        }
      ],
      "name": "getUserUpline",
      "outputs": [
        {
          "name": "",
          "type": "address"
        }
      ],
      "payable": false,
      "stateMutability": "view",
      "type": "function"
    },
    {
      "constant": true,
      "inputs": [
        {
          "name": "_user",
          "type": "address"
        }
      ],
      "name": "getUser",
      "outputs": [
        {
          "name": "",
          "type": "uint256"
        },
        {
          "name": "",
          "type": "uint256"
        },
        {
          "name": "",
          "type": "address[]"
        },
        {
          "name": "",
          "type": "uint256"
        }
      ],
      "payable": false,
      "stateMutability": "view",
      "type": "function"
    },
    {
      "constant": true,
      "inputs": [
        {
          "name": "_user",
          "type": "address"
        }
      ],
      "name": "getUserReferrals",
      "outputs": [
        {
          "name": "",
          "type": "address[]"
        }
      ],
      "payable": false,
      "stateMutability": "view",
      "type": "function"
    },
    {
      "constant": true,
      "inputs": [
        {
          "name": "_user",
          "type": "address"
        },
        {
          "name": "_level",
          "type": "uint256"
        }
      ],
      "name": "getUserLevelExpiresAt",
      "outputs": [
        {
          "name": "",
          "type": "uint256"
        }
      ],
      "payable": false,
      "stateMutability": "view",
      "type": "function"
    },
    {
      "constant": true,
      "inputs": [
        {
          "name": "_user",
          "type": "address"
        }
      ],
      "name": "getUserProfits",
      "outputs": [
        {
          "name": "",
          "type": "uint256[]"
        },
        {
          "name": "",
          "type": "address[]"
        },
        {
          "name": "",
          "type": "uint256[]"
        },
        {
          "name": "",
          "type": "uint256[]"
        }
      ],
      "payable": false,
      "stateMutability": "view",
      "type": "function"
    },
    {
      "constant": true,
      "inputs": [
        {
          "name": "_user",
          "type": "address"
        }
      ],
      "name": "getUserLosts",
      "outputs": [
        {
          "name": "",
          "type": "uint256[]"
        },
        {
          "name": "",
          "type": "address[]"
        },
        {
          "name": "",
          "type": "uint256[]"
        },
        {
          "name": "",
          "type": "uint256[]"
        }
      ],
      "payable": false,
      "stateMutability": "view",
      "type": "function"
    },
    {
      "constant": true,
      "inputs": [
        {
          "name": "_user",
          "type": "address"
        }
      ],
      "name": "getUserLevel",
      "outputs": [
        {
          "name": "",
          "type": "uint256"
        }
      ],
      "payable": false,
      "stateMutability": "view",
      "type": "function"
    },
    {
      "constant": true,
      "inputs": [
        {
          "name": "_user",
          "type": "address"
        }
      ],
      "name": "getUserDetails",
      "outputs": [
        {
          "name": "",
          "type": "uint256"
        },
        {
          "name": "",
          "type": "uint256"
        }
      ],
      "payable": false,
      "stateMutability": "view",
      "type": "function"
    }
  ],
  "bytecode": "0x6080604052600660025560026003556276a7006004553480156200002257600080fd5b50d380156200003057600080fd5b50d280156200003e57600080fd5b5060016000806101000a81548160ff0219169083151502179055506040518060400160405280600a81526020017f54726f6e4d617472697800000000000000000000000000000000000000000000815250600e9080519060200190620000a6929190620005ca565b506040518060400160405280600381526020017f544d580000000000000000000000000000000000000000000000000000000000815250600f9080519060200190620000f4929190620005ca565b50600060128190555060036010819055506064601381905550601054600a0a631dcd650002601481905550600b600d8190555033600060016101000a81548173ffffffffffffffffffffffffffffffffffffffff021916908373ffffffffffffffffffffffffffffffffffffffff16021790555060076000815480929190600101919050555033600160006101000a81548173ffffffffffffffffffffffffffffffffffffffff021916908373ffffffffffffffffffffffffffffffffffffffff160217905550631dcd65006008600060018152602001908152602001600020819055506359682f006008600060028152602001908152602001600020819055506402540be400600860006003815260200190815260200160002081905550640ba43b7400600860006004815260200190815260200160002081905550641d1a94a200600860006005815260200190815260200160002081905550643a35294400600860006006815260200190815260200160002081905550600560096000600181526020019081526020016000208190555060066009600060028152602001908152602001600020819055506007600960006003815260200190815260200160002081905550600860096000600481526020019081526020016000208190555060098060006005815260200190815260200160002081905550600a60096000600681526020019081526020016000208190555063055d4a80600a60006001815260200190815260200160002081905550630c380d40600a60006002815260200190815260200160002081905550634a817c80600a6000600381526020019081526020016000208190555064014ace4780600a600060048152602001908152602001600020819055506402cb417800600a60006005815260200190815260200160002081905550640578b58b00600a6000600681526020019081526020016000208190555060405180608001604052806007548152602001600081526020016000604051908082528060200260200182016040528015620004045781602001602082028038833980820191505090505b5081526020014281525060056000600160009054906101000a900473ffffffffffffffffffffffffffffffffffffffff1673ffffffffffffffffffffffffffffffffffffffff1673ffffffffffffffffffffffffffffffffffffffff16815260200190815260200160002060008201518160000155602082015181600101556040820151816002019080519060200190620004a192919062000651565b5060608201518160040155905050600160009054906101000a900473ffffffffffffffffffffffffffffffffffffffff1660066000600754815260200190815260200160002060006101000a81548173ffffffffffffffffffffffffffffffffffffffff021916908373ffffffffffffffffffffffffffffffffffffffff1602179055506000600190505b6002548111620005c35764200000000060056000600160009054906101000a900473ffffffffffffffffffffffffffffffffffffffff1673ffffffffffffffffffffffffffffffffffffffff1673ffffffffffffffffffffffffffffffffffffffff16815260200190815260200160002060030160008381526020019081526020016000208190555080806001019150506200052c565b506200074e565b828054600181600116156101000203166002900490600052602060002090601f016020900481019282601f106200060d57805160ff19168380011785556200063e565b828001600101855582156200063e579182015b828111156200063d57825182559160200191906001019062000620565b5b5090506200064d9190620006e0565b5090565b828054828255906000526020600020908101928215620006cd579160200282015b82811115620006cc5782518260006101000a81548173ffffffffffffffffffffffffffffffffffffffff021916908373ffffffffffffffffffffffffffffffffffffffff1602179055509160200191906001019062000672565b5b509050620006dc919062000708565b5090565b6200070591905b8082111562000701576000816000905550600101620006e7565b5090565b90565b6200074b91905b808211156200074757600081816101000a81549073ffffffffffffffffffffffffffffffffffffffff0219169055506001016200070f565b5090565b90565b61631f806200075e6000396000f3fe60806040526004361061036b5760003560e01c80638da5cb5b116101c6578063c6ee20d2116100f7578063d89a0f8011610095578063e6a5724c1161006f578063e6a5724c14611b44578063f4009c5d14611b7c578063f6838a7214611bd1578063faf5bcac14611bff5761036b565b8063d89a0f80146118fe578063dade39c914611a96578063e517d14714611adb5761036b565b8063ce5258eb116100d1578063ce5258eb146116de578063cf40ae2814611733578063d06db6b5146117e8578063d68a1c7d1461183d5761036b565b8063c6ee20d2146115ca578063cc06c35914611613578063cc3d967b146116585761036b565b8063a9059cbb11610164578063b0d2a6a41161013e578063b0d2a6a41461131f578063b48cfd1a14611374578063b8703cd5146113c9578063b97e8b9e146115615761036b565b8063a9059cbb146111fc578063aa46dab714611271578063aad049b3146112b65761036b565b80639793a69d116101a05780639793a69d146110465780639cf75f141461109b578063a0712d681461111a578063a87430ba1461116f5761036b565b80638da5cb5b14610ed657806390dd92df14610f4757806395d89b4114610f9c5761036b565b806349e15b17116102a05780636883c9b11161023e5780636f77926b116102185780636f77926b14610ce857806370a0823114610dbd578063715d654c14610e3c5780638a926d0f14610e915761036b565b80636883c9b114610bf95780636a732dee14610c4e5780636e477ba814610ca35761036b565b8063525a1d511161027a578063525a1d5114610a0657806352e70b3514610a5b578063575cea6b14610ae45780636807a38114610ba45761036b565b806349e15b17146108c55780634b6c36b51461091a578063502c9bd5146109715761036b565b806321923bde1161030d5780632c4e722e116102e75780632c4e722e14610791578063313ce567146107d6578063342d7c681461081b57806335fba369146108705761036b565b806321923bde1461063e57806327e235e3146106bd57806328620eff1461073c5761036b565b806306fdde031161034957806306fdde03146104b557806307d562111461055f5780630c5b623c146105a457806318160ddd146105f95761036b565b806302d05d3f1461037057806302dee2c9146103e1578063048a771014610436575b600080fd5b34801561037c57600080fd5b50d3801561038957600080fd5b50d2801561039657600080fd5b5061039f611c54565b604051808273ffffffffffffffffffffffffffffffffffffffff1673ffffffffffffffffffffffffffffffffffffffff16815260200191505060405180910390f35b3480156103ed57600080fd5b50d380156103fa57600080fd5b50d2801561040757600080fd5b506104346004803603602081101561041e57600080fd5b8101908080359060200190929190505050611c7a565b005b34801561044257600080fd5b50d3801561044f57600080fd5b50d2801561045c57600080fd5b5061049f6004803603602081101561047357600080fd5b81019080803573ffffffffffffffffffffffffffffffffffffffff169060200190929190505050611d59565b6040518082815260200191505060405180910390f35b3480156104c157600080fd5b50d380156104ce57600080fd5b50d280156104db57600080fd5b506104e4611d77565b6040518080602001828103825283818151815260200191508051906020019080838360005b83811015610524578082015181840152602081019050610509565b50505050905090810190601f1680156105515780820380516001836020036101000a031916815260200191505b509250505060405180910390f35b34801561056b57600080fd5b50d3801561057857600080fd5b50d2801561058557600080fd5b5061058e611e15565b6040518082815260200191505060405180910390f35b3480156105b057600080fd5b50d380156105bd57600080fd5b50d280156105ca57600080fd5b506105f7600480360360208110156105e157600080fd5b8101908080359060200190929190505050611e1b565b005b34801561060557600080fd5b50d3801561061257600080fd5b50d2801561061f57600080fd5b50610628611efa565b6040518082815260200191505060405180910390f35b34801561064a57600080fd5b50d3801561065757600080fd5b50d2801561066457600080fd5b506106a76004803603602081101561067b57600080fd5b81019080803573ffffffffffffffffffffffffffffffffffffffff169060200190929190505050611f00565b6040518082815260200191505060405180910390f35b3480156106c957600080fd5b50d380156106d657600080fd5b50d280156106e357600080fd5b50610726600480360360208110156106fa57600080fd5b81019080803573ffffffffffffffffffffffffffffffffffffffff169060200190929190505050611fae565b6040518082815260200191505060405180910390f35b34801561074857600080fd5b50d3801561075557600080fd5b50d2801561076257600080fd5b5061078f6004803603602081101561077957600080fd5b8101908080359060200190929190505050611fc6565b005b34801561079d57600080fd5b50d380156107aa57600080fd5b50d280156107b757600080fd5b506107c06120a5565b6040518082815260200191505060405180910390f35b3480156107e257600080fd5b50d380156107ef57600080fd5b50d280156107fc57600080fd5b506108056120ab565b6040518082815260200191505060405180910390f35b34801561082757600080fd5b50d3801561083457600080fd5b50d2801561084157600080fd5b5061086e6004803603602081101561085857600080fd5b81019080803590602001909291905050506120b1565b005b34801561087c57600080fd5b50d3801561088957600080fd5b50d2801561089657600080fd5b506108c3600480360360208110156108ad57600080fd5b8101908080359060200190929190505050612190565b005b3480156108d157600080fd5b50d380156108de57600080fd5b50d280156108eb57600080fd5b506109186004803603602081101561090257600080fd5b810190808035906020019092919050505061226f565b005b34801561092657600080fd5b50d3801561093357600080fd5b50d2801561094057600080fd5b5061096f6004803603602081101561095757600080fd5b8101908080351515906020019092919050505061234e565b005b34801561097d57600080fd5b50d3801561098a57600080fd5b50d2801561099757600080fd5b506109c4600480360360208110156109ae57600080fd5b810190808035906020019092919050505061242d565b604051808273ffffffffffffffffffffffffffffffffffffffff1673ffffffffffffffffffffffffffffffffffffffff16815260200191505060405180910390f35b348015610a1257600080fd5b50d38015610a1f57600080fd5b50d28015610a2c57600080fd5b50610a5960048036036020811015610a4357600080fd5b8101908080359060200190929190505050612460565b005b348015610a6757600080fd5b50d38015610a7457600080fd5b50d28015610a8157600080fd5b50610ace60048036036040811015610a9857600080fd5b81019080803573ffffffffffffffffffffffffffffffffffffffff1690602001909291908035906020019092919050505061252d565b6040518082815260200191505060405180910390f35b348015610af057600080fd5b50d38015610afd57600080fd5b50d28015610b0a57600080fd5b50610b4d60048036036020811015610b2157600080fd5b81019080803573ffffffffffffffffffffffffffffffffffffffff16906020019092919050505061258b565b6040518080602001828103825283818151815260200191508051906020019060200280838360005b83811015610b90578082015181840152602081019050610b75565b505050509050019250505060405180910390f35b348015610bb057600080fd5b50d38015610bbd57600080fd5b50d28015610bca57600080fd5b50610bf760048036036020811015610be157600080fd5b810190808035906020019092919050505061265b565b005b348015610c0557600080fd5b50d38015610c1257600080fd5b50d28015610c1f57600080fd5b50610c4c60048036036020811015610c3657600080fd5b810190808035906020019092919050505061273a565b005b348015610c5a57600080fd5b50d38015610c6757600080fd5b50d28015610c7457600080fd5b50610ca160048036036020811015610c8b57600080fd5b8101908080359060200190929190505050612819565b005b348015610caf57600080fd5b50d38015610cbc57600080fd5b50d28015610cc957600080fd5b50610cd26128f8565b6040518082815260200191505060405180910390f35b348015610cf457600080fd5b50d38015610d0157600080fd5b50d28015610d0e57600080fd5b50610d5160048036036020811015610d2557600080fd5b81019080803573ffffffffffffffffffffffffffffffffffffffff1690602001909291905050506128fe565b6040518085815260200184815260200180602001838152602001828103825284818151815260200191508051906020019060200280838360005b83811015610da6578082015181840152602081019050610d8b565b505050509050019550505050505060405180910390f35b348015610dc957600080fd5b50d38015610dd657600080fd5b50d28015610de357600080fd5b50610e2660048036036020811015610dfa57600080fd5b81019080803573ffffffffffffffffffffffffffffffffffffffff169060200190929190505050612aa7565b6040518082815260200191505060405180910390f35b348015610e4857600080fd5b50d38015610e5557600080fd5b50d28015610e6257600080fd5b50610e8f60048036036020811015610e7957600080fd5b8101908080359060200190929190505050612af0565b005b348015610e9d57600080fd5b50d38015610eaa57600080fd5b50d28015610eb757600080fd5b50610ec0612bcf565b6040518082815260200191505060405180910390f35b348015610ee257600080fd5b50d38015610eef57600080fd5b50d28015610efc57600080fd5b50610f05612bd5565b604051808273ffffffffffffffffffffffffffffffffffffffff1673ffffffffffffffffffffffffffffffffffffffff16815260200191505060405180910390f35b348015610f5357600080fd5b50d38015610f6057600080fd5b50d28015610f6d57600080fd5b50610f9a60048036036020811015610f8457600080fd5b8101908080359060200190929190505050612bfb565b005b348015610fa857600080fd5b50d38015610fb557600080fd5b50d28015610fc257600080fd5b50610fcb612cda565b6040518080602001828103825283818151815260200191508051906020019080838360005b8381101561100b578082015181840152602081019050610ff0565b50505050905090810190601f1680156110385780820380516001836020036101000a031916815260200191505b509250505060405180910390f35b34801561105257600080fd5b50d3801561105f57600080fd5b50d2801561106c57600080fd5b506110996004803603602081101561108357600080fd5b8101908080359060200190929190505050612d78565b005b3480156110a757600080fd5b50d380156110b457600080fd5b50d280156110c157600080fd5b50611104600480360360208110156110d857600080fd5b81019080803573ffffffffffffffffffffffffffffffffffffffff169060200190929190505050612e57565b6040518082815260200191505060405180910390f35b34801561112657600080fd5b50d3801561113357600080fd5b50d2801561114057600080fd5b5061116d6004803603602081101561115757600080fd5b8101908080359060200190929190505050612e75565b005b34801561117b57600080fd5b50d3801561118857600080fd5b50d2801561119557600080fd5b506111d8600480360360208110156111ac57600080fd5b81019080803573ffffffffffffffffffffffffffffffffffffffff1690602001909291905050506130bc565b60405180848152602001838152602001828152602001935050505060405180910390f35b34801561120857600080fd5b50d3801561121557600080fd5b50d2801561122257600080fd5b5061126f6004803603604081101561123957600080fd5b81019080803573ffffffffffffffffffffffffffffffffffffffff169060200190929190803590602001909291905050506130e6565b005b34801561127d57600080fd5b50d3801561128a57600080fd5b50d2801561129757600080fd5b506112a0613370565b6040518082815260200191505060405180910390f35b3480156112c257600080fd5b50d380156112cf57600080fd5b50d280156112dc57600080fd5b50611309600480360360208110156112f357600080fd5b8101908080359060200190929190505050613376565b6040518082815260200191505060405180910390f35b34801561132b57600080fd5b50d3801561133857600080fd5b50d2801561134557600080fd5b506113726004803603602081101561135c57600080fd5b810190808035906020019092919050505061338e565b005b34801561138057600080fd5b50d3801561138d57600080fd5b50d2801561139a57600080fd5b506113c7600480360360208110156113b157600080fd5b810190808035906020019092919050505061346d565b005b3480156113d557600080fd5b50d380156113e257600080fd5b50d280156113ef57600080fd5b506114326004803603602081101561140657600080fd5b81019080803573ffffffffffffffffffffffffffffffffffffffff16906020019092919050505061354c565b6040518080602001806020018060200180602001858103855289818151815260200191508051906020019060200280838360005b83811015611481578082015181840152602081019050611466565b50505050905001858103845288818151815260200191508051906020019060200280838360005b838110156114c35780820151818401526020810190506114a8565b50505050905001858103835287818151815260200191508051906020019060200280838360005b838110156115055780820151818401526020810190506114ea565b50505050905001858103825286818151815260200191508051906020019060200280838360005b8381101561154757808201518184015260208101905061152c565b505050509050019850505050505050505060405180910390f35b34801561156d57600080fd5b50d3801561157a57600080fd5b50d2801561158757600080fd5b506115b46004803603602081101561159e57600080fd5b81019080803590602001909291905050506137e7565b6040518082815260200191505060405180910390f35b3480156115d657600080fd5b50d380156115e357600080fd5b50d280156115f057600080fd5b506115f96137ff565b604051808215151515815260200191505060405180910390f35b34801561161f57600080fd5b50d3801561162c57600080fd5b50d2801561163957600080fd5b50611642613811565b6040518082815260200191505060405180910390f35b34801561166457600080fd5b50d3801561167157600080fd5b50d2801561167e57600080fd5b506116c16004803603602081101561169557600080fd5b81019080803573ffffffffffffffffffffffffffffffffffffffff169060200190929190505050613817565b604051808381526020018281526020019250505060405180910390f35b3480156116ea57600080fd5b50d380156116f757600080fd5b50d2801561170457600080fd5b506117316004803603602081101561171b57600080fd5b8101908080359060200190929190505050613abd565b005b34801561173f57600080fd5b50d3801561174c57600080fd5b50d2801561175957600080fd5b506117a66004803603604081101561177057600080fd5b81019080803573ffffffffffffffffffffffffffffffffffffffff16906020019092919080359060200190929190505050613b9c565b604051808273ffffffffffffffffffffffffffffffffffffffff1673ffffffffffffffffffffffffffffffffffffffff16815260200191505060405180910390f35b3480156117f457600080fd5b50d3801561180157600080fd5b50d2801561180e57600080fd5b5061183b6004803603602081101561182557600080fd5b8101908080359060200190929190505050613c71565b005b34801561184957600080fd5b50d3801561185657600080fd5b50d2801561186357600080fd5b506118bc6004803603606081101561187a57600080fd5b81019080803573ffffffffffffffffffffffffffffffffffffffff16906020019092919080351515906020019092919080359060200190929190505050613d50565b604051808273ffffffffffffffffffffffffffffffffffffffff1673ffffffffffffffffffffffffffffffffffffffff16815260200191505060405180910390f35b34801561190a57600080fd5b50d3801561191757600080fd5b50d2801561192457600080fd5b506119676004803603602081101561193b57600080fd5b81019080803573ffffffffffffffffffffffffffffffffffffffff1690602001909291905050506143f2565b6040518080602001806020018060200180602001858103855289818151815260200191508051906020019060200280838360005b838110156119b657808201518184015260208101905061199b565b50505050905001858103845288818151815260200191508051906020019060200280838360005b838110156119f85780820151818401526020810190506119dd565b50505050905001858103835287818151815260200191508051906020019060200280838360005b83811015611a3a578082015181840152602081019050611a1f565b50505050905001858103825286818151815260200191508051906020019060200280838360005b83811015611a7c578082015181840152602081019050611a61565b505050509050019850505050505050505060405180910390f35b348015611aa257600080fd5b50d38015611aaf57600080fd5b50d28015611abc57600080fd5b50611ac561468d565b6040518082815260200191505060405180910390f35b348015611ae757600080fd5b50d38015611af457600080fd5b50d28015611b0157600080fd5b50611b2e60048036036020811015611b1857600080fd5b8101908080359060200190929190505050614693565b6040518082815260200191505060405180910390f35b611b7a60048036036040811015611b5a57600080fd5b8101908080359060200190929190803590602001909291905050506146ab565b005b348015611b8857600080fd5b50d38015611b9557600080fd5b50d28015611ba257600080fd5b50611bcf60048036036020811015611bb957600080fd5b8101908080359060200190929190505050614e97565b005b611bfd60048036036020811015611be757600080fd5b8101908080359060200190929190505050614f76565b005b348015611c0b57600080fd5b50d38015611c1857600080fd5b50d28015611c2557600080fd5b50611c5260048036036020811015611c3c57600080fd5b8101908080359060200190929190505050615482565b005b600160009054906101000a900473ffffffffffffffffffffffffffffffffffffffff1681565b600160009054906101000a900473ffffffffffffffffffffffffffffffffffffffff1673ffffffffffffffffffffffffffffffffffffffff163373ffffffffffffffffffffffffffffffffffffffff1614611d3d576040517f08c379a00000000000000000000000000000000000000000000000000000000081526004018080602001828103825260178152602001807f596f7520617265206e6f74207468652063726561746f7200000000000000000081525060200191505060405180910390fd5b8060096000600281526020019081526020016000208190555050565b600c6020528060005260406000206000915090508060000154905081565b600e8054600181600116156101000203166002900480601f016020809104026020016040519081016040528092919081815260200182805460018160011615610100020316600290048015611e0d5780601f10611de257610100808354040283529160200191611e0d565b820191906000526020600020905b815481529060010190602001808311611df057829003601f168201915b505050505081565b600d5481565b600160009054906101000a900473ffffffffffffffffffffffffffffffffffffffff1673ffffffffffffffffffffffffffffffffffffffff163373ffffffffffffffffffffffffffffffffffffffff1614611ede576040517f08c379a00000000000000000000000000000000000000000000000000000000081526004018080602001828103825260178152602001807f596f7520617265206e6f74207468652063726561746f7200000000000000000081525060200191505060405180910390fd5b8060086000600281526020019081526020016000208190555050565b60125481565b600042611f0e83600161252d565b1015611f1d5760009050611fa9565b42611f2983600261252d565b1015611f385760019050611fa9565b42611f4483600361252d565b1015611f535760029050611fa9565b42611f5f83600461252d565b1015611f6e5760039050611fa9565b42611f7a83600561252d565b1015611f895760049050611fa9565b42611f9583600661252d565b1015611fa45760059050611fa9565b600690505b919050565b60116020528060005260406000206000915090505481565b600160009054906101000a900473ffffffffffffffffffffffffffffffffffffffff1673ffffffffffffffffffffffffffffffffffffffff163373ffffffffffffffffffffffffffffffffffffffff1614612089576040517f08c379a00000000000000000000000000000000000000000000000000000000081526004018080602001828103825260178152602001807f596f7520617265206e6f74207468652063726561746f7200000000000000000081525060200191505060405180910390fd5b8060086000600681526020019081526020016000208190555050565b60135481565b60105481565b600160009054906101000a900473ffffffffffffffffffffffffffffffffffffffff1673ffffffffffffffffffffffffffffffffffffffff163373ffffffffffffffffffffffffffffffffffffffff1614612174576040517f08c379a00000000000000000000000000000000000000000000000000000000081526004018080602001828103825260178152602001807f596f7520617265206e6f74207468652063726561746f7200000000000000000081525060200191505060405180910390fd5b8060086000600381526020019081526020016000208190555050565b600160009054906101000a900473ffffffffffffffffffffffffffffffffffffffff1673ffffffffffffffffffffffffffffffffffffffff163373ffffffffffffffffffffffffffffffffffffffff1614612253576040517f08c379a00000000000000000000000000000000000000000000000000000000081526004018080602001828103825260178152602001807f596f7520617265206e6f74207468652063726561746f7200000000000000000081525060200191505060405180910390fd5b8060086000600181526020019081526020016000208190555050565b600160009054906101000a900473ffffffffffffffffffffffffffffffffffffffff1673ffffffffffffffffffffffffffffffffffffffff163373ffffffffffffffffffffffffffffffffffffffff1614612332576040517f08c379a00000000000000000000000000000000000000000000000000000000081526004018080602001828103825260178152602001807f596f7520617265206e6f74207468652063726561746f7200000000000000000081525060200191505060405180910390fd5b80600a6000600681526020019081526020016000208190555050565b600160009054906101000a900473ffffffffffffffffffffffffffffffffffffffff1673ffffffffffffffffffffffffffffffffffffffff163373ffffffffffffffffffffffffffffffffffffffff1614612411576040517f08c379a00000000000000000000000000000000000000000000000000000000081526004018080602001828103825260178152602001807f596f7520617265206e6f74207468652063726561746f7200000000000000000081525060200191505060405180910390fd5b806000806101000a81548160ff02191690831515021790555050565b60066020528060005260406000206000915054906101000a900473ffffffffffffffffffffffffffffffffffffffff1681565b600160009054906101000a900473ffffffffffffffffffffffffffffffffffffffff1673ffffffffffffffffffffffffffffffffffffffff163373ffffffffffffffffffffffffffffffffffffffff1614612523576040517f08c379a00000000000000000000000000000000000000000000000000000000081526004018080602001828103825260178152602001807f596f7520617265206e6f74207468652063726561746f7200000000000000000081525060200191505060405180910390fd5b80600d8190555050565b6000600560008473ffffffffffffffffffffffffffffffffffffffff1673ffffffffffffffffffffffffffffffffffffffff168152602001908152602001600020600301600083815260200190815260200160002054905092915050565b6060600560008373ffffffffffffffffffffffffffffffffffffffff1673ffffffffffffffffffffffffffffffffffffffff16815260200190815260200160002060020180548060200260200160405190810160405280929190818152602001828054801561264f57602002820191906000526020600020905b8160009054906101000a900473ffffffffffffffffffffffffffffffffffffffff1673ffffffffffffffffffffffffffffffffffffffff1681526020019060010190808311612605575b50505050509050919050565b600160009054906101000a900473ffffffffffffffffffffffffffffffffffffffff1673ffffffffffffffffffffffffffffffffffffffff163373ffffffffffffffffffffffffffffffffffffffff161461271e576040517f08c379a00000000000000000000000000000000000000000000000000000000081526004018080602001828103825260178152602001807f596f7520617265206e6f74207468652063726561746f7200000000000000000081525060200191505060405180910390fd5b8060096000600581526020019081526020016000208190555050565b600160009054906101000a900473ffffffffffffffffffffffffffffffffffffffff1673ffffffffffffffffffffffffffffffffffffffff163373ffffffffffffffffffffffffffffffffffffffff16146127fd576040517f08c379a00000000000000000000000000000000000000000000000000000000081526004018080602001828103825260178152602001807f596f7520617265206e6f74207468652063726561746f7200000000000000000081525060200191505060405180910390fd5b8060096000600481526020019081526020016000208190555050565b600160009054906101000a900473ffffffffffffffffffffffffffffffffffffffff1673ffffffffffffffffffffffffffffffffffffffff163373ffffffffffffffffffffffffffffffffffffffff16146128dc576040517f08c379a00000000000000000000000000000000000000000000000000000000081526004018080602001828103825260178152602001807f596f7520617265206e6f74207468652063726561746f7200000000000000000081525060200191505060405180910390fd5b80600a6000600281526020019081526020016000208190555050565b60035481565b60008060606000600560008673ffffffffffffffffffffffffffffffffffffffff1673ffffffffffffffffffffffffffffffffffffffff16815260200190815260200160002060000154600560008773ffffffffffffffffffffffffffffffffffffffff1673ffffffffffffffffffffffffffffffffffffffff16815260200190815260200160002060010154600560008873ffffffffffffffffffffffffffffffffffffffff1673ffffffffffffffffffffffffffffffffffffffff168152602001908152602001600020600201600560008973ffffffffffffffffffffffffffffffffffffffff1673ffffffffffffffffffffffffffffffffffffffff1681526020019081526020016000206004015481805480602002602001604051908101604052809291908181526020018280548015612a9157602002820191906000526020600020905b8160009054906101000a900473ffffffffffffffffffffffffffffffffffffffff1673ffffffffffffffffffffffffffffffffffffffff1681526020019060010190808311612a47575b5050505050915093509350935093509193509193565b6000601160008373ffffffffffffffffffffffffffffffffffffffff1673ffffffffffffffffffffffffffffffffffffffff168152602001908152602001600020549050919050565b600160009054906101000a900473ffffffffffffffffffffffffffffffffffffffff1673ffffffffffffffffffffffffffffffffffffffff163373ffffffffffffffffffffffffffffffffffffffff1614612bb3576040517f08c379a00000000000000000000000000000000000000000000000000000000081526004018080602001828103825260178152602001807f596f7520617265206e6f74207468652063726561746f7200000000000000000081525060200191505060405180910390fd5b8060096000600681526020019081526020016000208190555050565b60145481565b600060019054906101000a900473ffffffffffffffffffffffffffffffffffffffff1681565b600160009054906101000a900473ffffffffffffffffffffffffffffffffffffffff1673ffffffffffffffffffffffffffffffffffffffff163373ffffffffffffffffffffffffffffffffffffffff1614612cbe576040517f08c379a00000000000000000000000000000000000000000000000000000000081526004018080602001828103825260178152602001807f596f7520617265206e6f74207468652063726561746f7200000000000000000081525060200191505060405180910390fd5b80600a6000600581526020019081526020016000208190555050565b600f8054600181600116156101000203166002900480601f016020809104026020016040519081016040528092919081815260200182805460018160011615610100020316600290048015612d705780601f10612d4557610100808354040283529160200191612d70565b820191906000526020600020905b815481529060010190602001808311612d5357829003601f168201915b505050505081565b600160009054906101000a900473ffffffffffffffffffffffffffffffffffffffff1673ffffffffffffffffffffffffffffffffffffffff163373ffffffffffffffffffffffffffffffffffffffff1614612e3b576040517f08c379a00000000000000000000000000000000000000000000000000000000081526004018080602001828103825260178152602001807f596f7520617265206e6f74207468652063726561746f7200000000000000000081525060200191505060405180910390fd5b8060096000600181526020019081526020016000208190555050565b600b6020528060005260406000206000915090508060000154905081565b600160009054906101000a900473ffffffffffffffffffffffffffffffffffffffff1673ffffffffffffffffffffffffffffffffffffffff163373ffffffffffffffffffffffffffffffffffffffff1614612f38576040517f08c379a00000000000000000000000000000000000000000000000000000000081526004018080602001828103825260178152602001807f596f7520617265206e6f74207468652063726561746f7200000000000000000081525060200191505060405180910390fd5b80601454612f516012548361556190919063ffffffff16565b10612fc4576040517f08c379a000000000000000000000000000000000000000000000000000000000815260040180806020018281038252601c8152602001807f4d6178696d756d20746f6b656e20616d6f756e742063726f737365640000000081525060200191505060405180910390fd5b6130388260116000600160009054906101000a900473ffffffffffffffffffffffffffffffffffffffff1673ffffffffffffffffffffffffffffffffffffffff1673ffffffffffffffffffffffffffffffffffffffff1681526020019081526020016000205461556190919063ffffffff16565b60116000600160009054906101000a900473ffffffffffffffffffffffffffffffffffffffff1673ffffffffffffffffffffffffffffffffffffffff1673ffffffffffffffffffffffffffffffffffffffff168152602001908152602001600020819055506130b28260125461556190919063ffffffff16565b6012819055505050565b60056020528060005260406000206000915090508060000154908060010154908060040154905083565b601160003373ffffffffffffffffffffffffffffffffffffffff1673ffffffffffffffffffffffffffffffffffffffff1681526020019081526020016000205481111561319b576040517f08c379a00000000000000000000000000000000000000000000000000000000081526004018080602001828103825260158152602001807f496e73756666696369656e742062616c616e63652e000000000000000000000081525060200191505060405180910390fd5b6131ed81601160003373ffffffffffffffffffffffffffffffffffffffff1673ffffffffffffffffffffffffffffffffffffffff168152602001908152602001600020546155e990919063ffffffff16565b601160003373ffffffffffffffffffffffffffffffffffffffff1673ffffffffffffffffffffffffffffffffffffffff1681526020019081526020016000208190555061328281601160008573ffffffffffffffffffffffffffffffffffffffff1673ffffffffffffffffffffffffffffffffffffffff1681526020019081526020016000205461556190919063ffffffff16565b601160008473ffffffffffffffffffffffffffffffffffffffff1673ffffffffffffffffffffffffffffffffffffffff168152602001908152602001600020819055507f9ed053bb818ff08b8353cd46f78db1f0799f31c9e4458fdb425c10eccd2efc4433838342604051808573ffffffffffffffffffffffffffffffffffffffff1673ffffffffffffffffffffffffffffffffffffffff1681526020018473ffffffffffffffffffffffffffffffffffffffff1673ffffffffffffffffffffffffffffffffffffffff16815260200183815260200182815260200194505050505060405180910390a15050565b60045481565b60086020528060005260406000206000915090505481565b600160009054906101000a900473ffffffffffffffffffffffffffffffffffffffff1673ffffffffffffffffffffffffffffffffffffffff163373ffffffffffffffffffffffffffffffffffffffff1614613451576040517f08c379a00000000000000000000000000000000000000000000000000000000081526004018080602001828103825260178152602001807f596f7520617265206e6f74207468652063726561746f7200000000000000000081525060200191505060405180910390fd5b8060096000600381526020019081526020016000208190555050565b600160009054906101000a900473ffffffffffffffffffffffffffffffffffffffff1673ffffffffffffffffffffffffffffffffffffffff163373ffffffffffffffffffffffffffffffffffffffff1614613530576040517f08c379a00000000000000000000000000000000000000000000000000000000081526004018080602001828103825260178152602001807f596f7520617265206e6f74207468652063726561746f7200000000000000000081525060200191505060405180910390fd5b80600a6000600181526020019081526020016000208190555050565b606080606080600c60008673ffffffffffffffffffffffffffffffffffffffff1673ffffffffffffffffffffffffffffffffffffffff168152602001908152602001600020600101600c60008773ffffffffffffffffffffffffffffffffffffffff1673ffffffffffffffffffffffffffffffffffffffff168152602001908152602001600020600201600c60008873ffffffffffffffffffffffffffffffffffffffff1673ffffffffffffffffffffffffffffffffffffffff168152602001908152602001600020600301600c60008973ffffffffffffffffffffffffffffffffffffffff1673ffffffffffffffffffffffffffffffffffffffff168152602001908152602001600020600401838054806020026020016040519081016040528092919081815260200182805480156136a557602002820191906000526020600020905b815481526020019060010190808311613691575b505050505093508280548060200260200160405190810160405280929190818152602001828054801561372d57602002820191906000526020600020905b8160009054906101000a900473ffffffffffffffffffffffffffffffffffffffff1673ffffffffffffffffffffffffffffffffffffffff16815260200190600101908083116136e3575b505050505092508180548060200260200160405190810160405280929190818152602001828054801561377f57602002820191906000526020600020905b81548152602001906001019080831161376b575b50505050509150808054806020026020016040519081016040528092919081815260200182805480156137d157602002820191906000526020600020905b8154815260200190600101908083116137bd575b5050505050905093509350935093509193509193565b600a6020528060005260406000206000915090505481565b6000809054906101000a900460ff1681565b60025481565b6000804261382684600161252d565b101561387d576000600560008573ffffffffffffffffffffffffffffffffffffffff1673ffffffffffffffffffffffffffffffffffffffff1681526020019081526020016000206000015481915091509150613ab8565b4261388984600261252d565b10156138e0576001600560008573ffffffffffffffffffffffffffffffffffffffff1673ffffffffffffffffffffffffffffffffffffffff1681526020019081526020016000206000015481915091509150613ab8565b426138ec84600361252d565b1015613943576002600560008573ffffffffffffffffffffffffffffffffffffffff1673ffffffffffffffffffffffffffffffffffffffff1681526020019081526020016000206000015481915091509150613ab8565b4261394f84600461252d565b10156139a6576003600560008573ffffffffffffffffffffffffffffffffffffffff1673ffffffffffffffffffffffffffffffffffffffff1681526020019081526020016000206000015481915091509150613ab8565b426139b284600561252d565b1015613a09576004600560008573ffffffffffffffffffffffffffffffffffffffff1673ffffffffffffffffffffffffffffffffffffffff1681526020019081526020016000206000015481915091509150613ab8565b42613a1584600661252d565b1015613a6b5760058060008573ffffffffffffffffffffffffffffffffffffffff1673ffffffffffffffffffffffffffffffffffffffff1681526020019081526020016000206000015481915091509150613ab8565b6006600560008573ffffffffffffffffffffffffffffffffffffffff1673ffffffffffffffffffffffffffffffffffffffff16815260200190815260200160002060000154819150915091505b915091565b600160009054906101000a900473ffffffffffffffffffffffffffffffffffffffff1673ffffffffffffffffffffffffffffffffffffffff163373ffffffffffffffffffffffffffffffffffffffff1614613b80576040517f08c379a00000000000000000000000000000000000000000000000000000000081526004018080602001828103825260178152602001807f596f7520617265206e6f74207468652063726561746f7200000000000000000081525060200191505060405180910390fd5b80600a6000600381526020019081526020016000208190555050565b60008082111580613bd95750600073ffffffffffffffffffffffffffffffffffffffff168373ffffffffffffffffffffffffffffffffffffffff16145b15613be657829050613c6b565b613c6860066000600560008773ffffffffffffffffffffffffffffffffffffffff1673ffffffffffffffffffffffffffffffffffffffff16815260200190815260200160002060010154815260200190815260200160002060009054906101000a900473ffffffffffffffffffffffffffffffffffffffff1660018403613b9c565b90505b92915050565b600160009054906101000a900473ffffffffffffffffffffffffffffffffffffffff1673ffffffffffffffffffffffffffffffffffffffff163373ffffffffffffffffffffffffffffffffffffffff1614613d34576040517f08c379a00000000000000000000000000000000000000000000000000000000081526004018080602001828103825260178152602001807f596f7520617265206e6f74207468652063726561746f7200000000000000000081525060200191505060405180910390fd5b8060086000600581526020019081526020016000208190555050565b6000600354600560008673ffffffffffffffffffffffffffffffffffffffff1673ffffffffffffffffffffffffffffffffffffffff168152602001908152602001600020600201805490501015613da9578390506143eb565b60006001600d5460020a0360020290506000600180600d540360020a0360020290506000606083604051908082528060200260200182016040528015613dfe5781602001602082028038833980820191505090505b509050600560008973ffffffffffffffffffffffffffffffffffffffff1673ffffffffffffffffffffffffffffffffffffffff168152602001908152602001600020600201600081548110613e4f57fe5b9060005260206000200160009054906101000a900473ffffffffffffffffffffffffffffffffffffffff1681600081518110613e8757fe5b602002602001019073ffffffffffffffffffffffffffffffffffffffff16908173ffffffffffffffffffffffffffffffffffffffff1681525050600560008973ffffffffffffffffffffffffffffffffffffffff1673ffffffffffffffffffffffffffffffffffffffff168152602001908152602001600020600201600181548110613f0f57fe5b9060005260206000200160009054906101000a900473ffffffffffffffffffffffffffffffffffffffff1681600181518110613f4757fe5b602002602001019073ffffffffffffffffffffffffffffffffffffffff16908173ffffffffffffffffffffffffffffffffffffffff168152505060008090505b848110156141d55760035460056000848481518110613fa257fe5b602002602001015173ffffffffffffffffffffffffffffffffffffffff1673ffffffffffffffffffffffffffffffffffffffff16815260200190815260200160002060020180549050101561400c57818181518110613ffd57fe5b602002602001015192506141d5565b838110156141c8576005600083838151811061402457fe5b602002602001015173ffffffffffffffffffffffffffffffffffffffff1673ffffffffffffffffffffffffffffffffffffffff16815260200190815260200160002060020160008154811061407557fe5b9060005260206000200160009054906101000a900473ffffffffffffffffffffffffffffffffffffffff168260026001840102815181106140b257fe5b602002602001019073ffffffffffffffffffffffffffffffffffffffff16908173ffffffffffffffffffffffffffffffffffffffff1681525050600560008383815181106140fc57fe5b602002602001015173ffffffffffffffffffffffffffffffffffffffff1673ffffffffffffffffffffffffffffffffffffffff16815260200190815260200160002060020160018154811061414d57fe5b9060005260206000200160009054906101000a900473ffffffffffffffffffffffffffffffffffffffff1682600160026001850102018151811061418d57fe5b602002602001019073ffffffffffffffffffffffffffffffffffffffff16908173ffffffffffffffffffffffffffffffffffffffff16815250505b8080600101915050613f87565b50600073ffffffffffffffffffffffffffffffffffffffff168273ffffffffffffffffffffffffffffffffffffffff16148015614216575060011515871515145b156143e35782861015801561422a57508386105b1561428c57600061425082888151811061424057fe5b6020026020010151600089613d50565b9050600073ffffffffffffffffffffffffffffffffffffffff168173ffffffffffffffffffffffffffffffffffffffff161461428a578092505b505b600073ffffffffffffffffffffffffffffffffffffffff168273ffffffffffffffffffffffffffffffffffffffff16141561433f5760008390505b8481101561433d5760006142f08383815181106142e057fe5b602002602001015160008a613d50565b9050600073ffffffffffffffffffffffffffffffffffffffff168173ffffffffffffffffffffffffffffffffffffffff161461432f578093505061433d565b5080806001019150506142c7565b505b600073ffffffffffffffffffffffffffffffffffffffff168273ffffffffffffffffffffffffffffffffffffffff1614156143e2576040517f08c379a00000000000000000000000000000000000000000000000000000000081526004018080602001828103825260128152602001807f5265666572726572206e6f7420666f756e64000000000000000000000000000081525060200191505060405180910390fd5b5b819450505050505b9392505050565b606080606080600b60008673ffffffffffffffffffffffffffffffffffffffff1673ffffffffffffffffffffffffffffffffffffffff168152602001908152602001600020600101600b60008773ffffffffffffffffffffffffffffffffffffffff1673ffffffffffffffffffffffffffffffffffffffff168152602001908152602001600020600201600b60008873ffffffffffffffffffffffffffffffffffffffff1673ffffffffffffffffffffffffffffffffffffffff168152602001908152602001600020600301600b60008973ffffffffffffffffffffffffffffffffffffffff1673ffffffffffffffffffffffffffffffffffffffff1681526020019081526020016000206004018380548060200260200160405190810160405280929190818152602001828054801561454b57602002820191906000526020600020905b815481526020019060010190808311614537575b50505050509350828054806020026020016040519081016040528092919081815260200182805480156145d357602002820191906000526020600020905b8160009054906101000a900473ffffffffffffffffffffffffffffffffffffffff1673ffffffffffffffffffffffffffffffffffffffff1681526020019060010190808311614589575b505050505092508180548060200260200160405190810160405280929190818152602001828054801561462557602002820191906000526020600020905b815481526020019060010190808311614611575b505050505091508080548060200260200160405190810160405280929190818152602001828054801561467757602002820191906000526020600020905b815481526020019060010190808311614663575b5050505050905093509350935093509193509193565b60075481565b60096020528060005260406000206000915090505481565b6000600560003373ffffffffffffffffffffffffffffffffffffffff1673ffffffffffffffffffffffffffffffffffffffff1681526020019081526020016000206000015414614763576040517f08c379a000000000000000000000000000000000000000000000000000000000815260040180806020018281038252601a8152602001807f5573657220697320616c7265616479207265676973746572656400000000000081525060200191505060405180910390fd5b8160008111801561477657506007548111155b6147e8576040517f08c379a00000000000000000000000000000000000000000000000000000000081526004018080602001828103825260138152602001807f496e76616c69642072656665727265722049440000000000000000000000000081525060200191505060405180910390fd5b80600560003373ffffffffffffffffffffffffffffffffffffffff1673ffffffffffffffffffffffffffffffffffffffff168152602001908152602001600020600001541415614883576040517f08c379a00000000000000000000000000000000000000000000000000000000081526004018080602001828103825260228152602001806162b16022913960400191505060405180910390fd5b6014546148a360125461489534615633565b61556190919063ffffffff16565b10614916576040517f08c379a000000000000000000000000000000000000000000000000000000000815260040180806020018281038252601c8152602001807f4d6178696d756d20746f6b656e20616d6f756e742063726f737365640000000081525060200191505060405180910390fd5b600115156000809054906101000a900460ff1615151461493557600080fd5b6001600860008281526020019081526020016000205434146149bf576040517f08c379a00000000000000000000000000000000000000000000000000000000081526004018080602001828103825260198152602001807f496e76616c6964206c6576656c20616d6f756e742073656e740000000000000081525060200191505060405180910390fd5b60006149ca34615633565b9050614a1e81601160003373ffffffffffffffffffffffffffffffffffffffff1673ffffffffffffffffffffffffffffffffffffffff1681526020019081526020016000205461556190919063ffffffff16565b601160003373ffffffffffffffffffffffffffffffffffffffff1673ffffffffffffffffffffffffffffffffffffffff16815260200190815260200160002081905550614a768160125461556190919063ffffffff16565b601281905550600354600560006006600089815260200190815260200160002060009054906101000a900473ffffffffffffffffffffffffffffffffffffffff1673ffffffffffffffffffffffffffffffffffffffff1673ffffffffffffffffffffffffffffffffffffffff1681526020019081526020016000206002018054905010614b815760056000614b406006600089815260200190815260200160002060009054906101000a900473ffffffffffffffffffffffffffffffffffffffff16600188613d50565b73ffffffffffffffffffffffffffffffffffffffff1673ffffffffffffffffffffffffffffffffffffffff1681526020019081526020016000206000015494505b600760008154809291906001019190505550604051806080016040528060075481526020018681526020016000604051908082528060200260200182016040528015614bdc5781602001602082028038833980820191505090505b50815260200142815250600560003373ffffffffffffffffffffffffffffffffffffffff1673ffffffffffffffffffffffffffffffffffffffff16815260200190815260200160002060008201518160000155602082015181600101556040820151816002019080519060200190614c559291906161e3565b50606082015181600401559050503360066000600754815260200190815260200160002060006101000a81548173ffffffffffffffffffffffffffffffffffffffff021916908373ffffffffffffffffffffffffffffffffffffffff1602179055506004544201600560003373ffffffffffffffffffffffffffffffffffffffff1673ffffffffffffffffffffffffffffffffffffffff16815260200190815260200160002060030160006001815260200190815260200160002081905550600560006006600088815260200190815260200160002060009054906101000a900473ffffffffffffffffffffffffffffffffffffffff1673ffffffffffffffffffffffffffffffffffffffff1673ffffffffffffffffffffffffffffffffffffffff1681526020019081526020016000206002013390806001815401808255809150509060018203906000526020600020016000909192909190916101000a81548173ffffffffffffffffffffffffffffffffffffffff021916908373ffffffffffffffffffffffffffffffffffffffff16021790555050614df8600133615676565b6006600086815260200190815260200160002060009054906101000a900473ffffffffffffffffffffffffffffffffffffffff1673ffffffffffffffffffffffffffffffffffffffff163373ffffffffffffffffffffffffffffffffffffffff167fefffd168f9bcad9af2b2c24e22e39380303bafa6b19dc2438263c57dfdc0b28c426040518082815260200191505060405180910390a35050505050565b600160009054906101000a900473ffffffffffffffffffffffffffffffffffffffff1673ffffffffffffffffffffffffffffffffffffffff163373ffffffffffffffffffffffffffffffffffffffff1614614f5a576040517f08c379a00000000000000000000000000000000000000000000000000000000081526004018080602001828103825260178152602001807f596f7520617265206e6f74207468652063726561746f7200000000000000000081525060200191505060405180910390fd5b8060086000600481526020019081526020016000208190555050565b6000600560003373ffffffffffffffffffffffffffffffffffffffff1673ffffffffffffffffffffffffffffffffffffffff16815260200190815260200160002060000154141561502f576040517f08c379a00000000000000000000000000000000000000000000000000000000081526004018080602001828103825260138152602001807f5573657220646f6573206e6f742065786973740000000000000000000000000081525060200191505060405180910390fd5b8060008111801561504257506002548111155b6150b4576040517f08c379a00000000000000000000000000000000000000000000000000000000081526004018080602001828103825260158152602001807f496e76616c6964206c6576656c20656e7465726564000000000000000000000081525060200191505060405180910390fd5b6014546150d46012546150c634615633565b61556190919063ffffffff16565b10615147576040517f08c379a000000000000000000000000000000000000000000000000000000000815260040180806020018281038252601c8152602001807f4d6178696d756d20746f6b656e20616d6f756e742063726f737365640000000081525060200191505060405180910390fd5b600115156000809054906101000a900460ff1615151461516657600080fd5b81600860008281526020019081526020016000205434146151ef576040517f08c379a00000000000000000000000000000000000000000000000000000000081526004018080602001828103825260198152602001807f496e76616c6964206c6576656c20616d6f756e742073656e740000000000000081525060200191505060405180910390fd5b60006151fa34615633565b905061524e81601160003373ffffffffffffffffffffffffffffffffffffffff1673ffffffffffffffffffffffffffffffffffffffff1681526020019081526020016000205461556190919063ffffffff16565b601160003373ffffffffffffffffffffffffffffffffffffffff1673ffffffffffffffffffffffffffffffffffffffff168152602001908152602001600020819055506152a68160125461556190919063ffffffff16565b60128190555060006001850390505b600081111561534b57426152c9338361252d565b101561533d576040517f08c379a00000000000000000000000000000000000000000000000000000000081526004018080602001828103825260188152602001807f4275792070726576696f7573206c6576656c206669727374000000000000000081525060200191505060405180910390fd5b8080600190039150506152b5565b506000615358338661252d565b14156153bf576004544201600560003373ffffffffffffffffffffffffffffffffffffffff1673ffffffffffffffffffffffffffffffffffffffff168152602001908152602001600020600301600086815260200190815260200160002081905550615423565b600454600560003373ffffffffffffffffffffffffffffffffffffffff1673ffffffffffffffffffffffffffffffffffffffff1681526020019081526020016000206003016000868152602001908152602001600020600082825401925050819055505b61542d8433615676565b833373ffffffffffffffffffffffffffffffffffffffff167faa9c5ea0815809ae6234afa73aef7d42ef76537c06d6ce8f00f38c9c4dd94c97426040518082815260200191505060405180910390a350505050565b600160009054906101000a900473ffffffffffffffffffffffffffffffffffffffff1673ffffffffffffffffffffffffffffffffffffffff163373ffffffffffffffffffffffffffffffffffffffff1614615545576040517f08c379a00000000000000000000000000000000000000000000000000000000081526004018080602001828103825260178152602001807f596f7520617265206e6f74207468652063726561746f7200000000000000000081525060200191505060405180910390fd5b80600a6000600481526020019081526020016000208190555050565b6000808284019050838110156155df576040517f08c379a000000000000000000000000000000000000000000000000000000000815260040180806020018281038252601b8152602001807f536166654d6174683a206164646974696f6e206f766572666c6f77000000000081525060200191505060405180910390fd5b8091505092915050565b600061562b83836040518060400160405280601e81526020017f536166654d6174683a207375627472616374696f6e206f766572666c6f770000815250615f8d565b905092915050565b60008082905061564e6013548261604d90919063ffffffff16565b905061566b601054600a0a606402826160d390919063ffffffff16565b905080915050919050565b600080600090506000600190505b60096000868152602001908152602001600020548111615f1b576156a88482613b9c565b9250600073ffffffffffffffffffffffffffffffffffffffff168373ffffffffffffffffffffffffffffffffffffffff16141561570557600060019054906101000a900473ffffffffffffffffffffffffffffffffffffffff1692505b6000600560008573ffffffffffffffffffffffffffffffffffffffff1673ffffffffffffffffffffffffffffffffffffffff16815260200190815260200160002060030160008781526020019081526020016000205414806157b9575042600560008573ffffffffffffffffffffffffffffffffffffffff1673ffffffffffffffffffffffffffffffffffffffff168152602001908152602001600020600301600087815260200190815260200160002054105b15615b6d57600560008473ffffffffffffffffffffffffffffffffffffffff1673ffffffffffffffffffffffffffffffffffffffff16815260200190815260200160002060000154600c60008573ffffffffffffffffffffffffffffffffffffffff1673ffffffffffffffffffffffffffffffffffffffff16815260200190815260200160002060000181905550600c60008473ffffffffffffffffffffffffffffffffffffffff1673ffffffffffffffffffffffffffffffffffffffff168152602001908152602001600020600101600560003373ffffffffffffffffffffffffffffffffffffffff1673ffffffffffffffffffffffffffffffffffffffff168152602001908152602001600020600001549080600181540180825580915050906001820390600052602060002001600090919290919091505550600c60008473ffffffffffffffffffffffffffffffffffffffff1673ffffffffffffffffffffffffffffffffffffffff1681526020019081526020016000206002013390806001815401808255809150509060018203906000526020600020016000909192909190916101000a81548173ffffffffffffffffffffffffffffffffffffffff021916908373ffffffffffffffffffffffffffffffffffffffff16021790555050600c60008473ffffffffffffffffffffffffffffffffffffffff1673ffffffffffffffffffffffffffffffffffffffff168152602001908152602001600020600301600a6000878152602001908152602001600020549080600181540180825580915050906001820390600052602060002001600090919290919091505550600c60008473ffffffffffffffffffffffffffffffffffffffff1673ffffffffffffffffffffffffffffffffffffffff168152602001908152602001600020600401859080600181540180825580915050906001820390600052602060002001600090919290919091505550600060019054906101000a900473ffffffffffffffffffffffffffffffffffffffff1673ffffffffffffffffffffffffffffffffffffffff166108fc600a6000888152602001908152602001600020549081150290604051600060405180830381858888f19350505050158015615b01573d6000803e3d6000fd5b50848373ffffffffffffffffffffffffffffffffffffffff168573ffffffffffffffffffffffffffffffffffffffff167f41daddfd368d96253845e0cdc137e41d708bf217e034d8a5265fa3b14ff8bb21426040518082815260200191505060405180910390a4615ef6565b600560008473ffffffffffffffffffffffffffffffffffffffff1673ffffffffffffffffffffffffffffffffffffffff16815260200190815260200160002060000154600b60008573ffffffffffffffffffffffffffffffffffffffff1673ffffffffffffffffffffffffffffffffffffffff16815260200190815260200160002060000181905550600b60008473ffffffffffffffffffffffffffffffffffffffff1673ffffffffffffffffffffffffffffffffffffffff168152602001908152602001600020600101600560003373ffffffffffffffffffffffffffffffffffffffff1673ffffffffffffffffffffffffffffffffffffffff168152602001908152602001600020600001549080600181540180825580915050906001820390600052602060002001600090919290919091505550600b60008473ffffffffffffffffffffffffffffffffffffffff1673ffffffffffffffffffffffffffffffffffffffff1681526020019081526020016000206002013390806001815401808255809150509060018203906000526020600020016000909192909190916101000a81548173ffffffffffffffffffffffffffffffffffffffff021916908373ffffffffffffffffffffffffffffffffffffffff16021790555050600b60008473ffffffffffffffffffffffffffffffffffffffff1673ffffffffffffffffffffffffffffffffffffffff168152602001908152602001600020600301600a6000878152602001908152602001600020549080600181540180825580915050906001820390600052602060002001600090919290919091505550600b60008473ffffffffffffffffffffffffffffffffffffffff1673ffffffffffffffffffffffffffffffffffffffff1681526020019081526020016000206004018590806001815401808255809150509060018203906000526020600020016000909192909190915055508273ffffffffffffffffffffffffffffffffffffffff166108fc600a6000888152602001908152602001600020549081150290604051600060405180830381858888f19350505050158015615e8e573d6000803e3d6000fd5b50848373ffffffffffffffffffffffffffffffffffffffff168573ffffffffffffffffffffffffffffffffffffffff167f7630b7dd8ad8bdf6478cf39a9cedd305bc3e7505c84289b12c4045de3cf05db7426040518082815260200191505060405180910390a45b600a600086815260200190815260200160002054820191508080600101915050615684565b50600060019054906101000a900473ffffffffffffffffffffffffffffffffffffffff1673ffffffffffffffffffffffffffffffffffffffff166108fc8234039081150290604051600060405180830381858888f19350505050158015615f86573d6000803e3d6000fd5b5050505050565b600083831115829061603a576040517f08c379a00000000000000000000000000000000000000000000000000000000081526004018080602001828103825283818151815260200191508051906020019080838360005b83811015615fff578082015181840152602081019050615fe4565b50505050905090810190601f16801561602c5780820380516001836020036101000a031916815260200191505b509250505060405180910390fd5b5060008385039050809150509392505050565b60008083141561606057600090506160cd565b600082840290508284828161607157fe5b04146160c8576040517f08c379a00000000000000000000000000000000000000000000000000000000081526004018080602001828103825260218152602001806162d36021913960400191505060405180910390fd5b809150505b92915050565b600061611583836040518060400160405280601a81526020017f536166654d6174683a206469766973696f6e206279207a65726f00000000000081525061611d565b905092915050565b600080831182906161c9576040517f08c379a00000000000000000000000000000000000000000000000000000000081526004018080602001828103825283818151815260200191508051906020019080838360005b8381101561618e578082015181840152602081019050616173565b50505050905090810190601f1680156161bb5780820380516001836020036101000a031916815260200191505b509250505060405180910390fd5b5060008385816161d557fe5b049050809150509392505050565b82805482825590600052602060002090810192821561625c579160200282015b8281111561625b5782518260006101000a81548173ffffffffffffffffffffffffffffffffffffffff021916908373ffffffffffffffffffffffffffffffffffffffff16021790555091602001919060010190616203565b5b509050616269919061626d565b5090565b6162ad91905b808211156162a957600081816101000a81549073ffffffffffffffffffffffffffffffffffffffff021916905550600101616273565b5090565b9056fe52656665722049442063616e6e6f742062652073616d652061732055736572204944536166654d6174683a206d756c7469706c69636174696f6e206f766572666c6f77a165627a7a72305820954381cba20f8adba57a3de886aad6588777afb42dcf12f026441a3388a327440029",
  "source": "pragma solidity ^0.5.8;\n\nlibrary SafeMath {\n\t/**\n\t * @dev Returns the addition of two unsigned integers, reverting on\n\t * overflow.\n\t *\n\t * Counterpart to Solidity's `+` operator.\n\t *\n\t * Requirements:\n\t *\n\t * - Addition cannot overflow.\n\t */\n\tfunction add(uint256 a, uint256 b) internal pure returns (uint256) {\n\t\tuint256 c = a + b;\n\t\trequire(c >= a, \"SafeMath: addition overflow\");\n\n\t\treturn c;\n\t}\n\n\t/**\n\t * @dev Returns the subtraction of two unsigned integers, reverting on\n\t * overflow (when the result is negative).\n\t *\n\t * Counterpart to Solidity's `-` operator.\n\t *\n\t * Requirements:\n\t *\n\t * - Subtraction cannot overflow.\n\t */\n\tfunction sub(uint256 a, uint256 b) internal pure returns (uint256) {\n\t\treturn sub(a, b, \"SafeMath: subtraction overflow\");\n\t}\n\n\t/**\n\t * @dev Returns the subtraction of two unsigned integers, reverting with custom message on\n\t * overflow (when the result is negative).\n\t *\n\t * Counterpart to Solidity's `-` operator.\n\t *\n\t * Requirements:\n\t *\n\t * - Subtraction cannot overflow.\n\t */\n\tfunction sub(uint256 a, uint256 b, string memory errorMessage) internal pure returns (uint256) {\n\t\trequire(b <= a, errorMessage);\n\t\tuint256 c = a - b;\n\n\t\treturn c;\n\t}\n\n\t/**\n\t * @dev Returns the multiplication of two unsigned integers, reverting on\n\t * overflow.\n\t *\n\t * Counterpart to Solidity's `*` operator.\n\t *\n\t * Requirements:\n\t *\n\t * - Multiplication cannot overflow.\n\t */\n\tfunction mul(uint256 a, uint256 b) internal pure returns (uint256) {\n\t\t// Gas optimization: this is cheaper than requiring 'a' not being zero, but the\n\t\t// benefit is lost if 'b' is also tested.\n\t\t// See: https://github.com/OpenZeppelin/openzeppelin-contracts/pull/522\n\t\tif (a == 0) {\n\t\t\treturn 0;\n\t\t}\n\n\t\tuint256 c = a * b;\n\t\trequire(c / a == b, \"SafeMath: multiplication overflow\");\n\n\t\treturn c;\n\t}\n\n\t/**\n\t * @dev Returns the integer division of two unsigned integers. Reverts on\n\t * division by zero. The result is rounded towards zero.\n\t *\n\t * Counterpart to Solidity's `/` operator. Note: this function uses a\n\t * `revert` opcode (which leaves remaining gas untouched) while Solidity\n\t * uses an invalid opcode to revert (consuming all remaining gas).\n\t *\n\t * Requirements:\n\t *\n\t * - The divisor cannot be zero.\n\t */\n\tfunction div(uint256 a, uint256 b) internal pure returns (uint256) {\n\t\treturn div(a, b, \"SafeMath: division by zero\");\n\t}\n\n\t/**\n\t * @dev Returns the integer division of two unsigned integers. Reverts with custom message on\n\t * division by zero. The result is rounded towards zero.\n\t *\n\t * Counterpart to Solidity's `/` operator. Note: this function uses a\n\t * `revert` opcode (which leaves remaining gas untouched) while Solidity\n\t * uses an invalid opcode to revert (consuming all remaining gas).\n\t *\n\t * Requirements:\n\t *\n\t * - The divisor cannot be zero.\n\t */\n\tfunction div(uint256 a, uint256 b, string memory errorMessage) internal pure returns (uint256) {\n\t\trequire(b > 0, errorMessage);\n\t\tuint256 c = a / b;\n\t\t// assert(a == b * c + a % b); // There is no case in which this doesn't hold\n\n\t\treturn c;\n\t}\n\n\t/**\n\t * @dev Returns the remainder of dividing two unsigned integers. (unsigned integer modulo),\n\t * Reverts when dividing by zero.\n\t *\n\t * Counterpart to Solidity's `%` operator. This function uses a `revert`\n\t * opcode (which leaves remaining gas untouched) while Solidity uses an\n\t * invalid opcode to revert (consuming all remaining gas).\n\t *\n\t * Requirements:\n\t *\n\t * - The divisor cannot be zero.\n\t */\n\tfunction mod(uint256 a, uint256 b) internal pure returns (uint256) {\n\t\treturn mod(a, b, \"SafeMath: modulo by zero\");\n\t}\n\n\t/**\n\t * @dev Returns the remainder of dividing two unsigned integers. (unsigned integer modulo),\n\t * Reverts with custom message when dividing by zero.\n\t *\n\t * Counterpart to Solidity's `%` operator. This function uses a `revert`\n\t * opcode (which leaves remaining gas untouched) while Solidity uses an\n\t * invalid opcode to revert (consuming all remaining gas).\n\t *\n\t * Requirements:\n\t *\n\t * - The divisor cannot be zero.\n\t */\n\tfunction mod(uint256 a, uint256 b, string memory errorMessage) internal pure returns (uint256) {\n\t\trequire(b != 0, errorMessage);\n\t\treturn a % b;\n\t}\n}\n\ncontract TronMatrix {\n\tusing SafeMath for uint;\n\n\tbool public contractStatus;\n\taddress public owner;\n\taddress public creator;\n\tuint public maxLevel = 6;\n\tuint public referralLimit = 2;\n\tuint public levelExpireTime = 90 days;\n\tmapping(address => User) public users;\n\tmapping(uint => address) public userAddresses;\n\tuint public last_uid;\n\tmapping(uint => uint) public levelPrice;\n\tmapping(uint => uint) public uplines;\n\tmapping(uint => uint) public incentive;\n\tmapping(address => ProfitsReceived) public profitsReceived;\n\tmapping(address => ProfitsLost) public profitsLost;\n\tuint public levelDown;\n\n\tevent RegisterUserEvent(address indexed user, address indexed referrer, uint time);\n\tevent BuyLevelEvent(address indexed user, uint indexed level, uint time);\n\tevent GetLevelProfitEvent(address indexed user, address indexed referral, uint indexed level, uint time);\n\tevent LostLevelProfitEvent(address indexed user, address indexed referral, uint indexed level, uint time);\n\n\tstring public name;\n\tstring public symbol;\n\tuint public decimals;\n\tmapping(address => uint) public balances;\n\tuint public totalSupply;\n\tuint public rate;\n\tuint public maxTokenAmount;\n\n\tevent Transfer(address from, address to, uint amount, uint time);\n\n\tstruct User {\n\t\tuint id;\n\t\tuint referrerID;\n\t\taddress[] referrals;\n\t\tmapping(uint => uint) levelExpiresAt;\n\t\tuint created;\n\t}\n\n\tstruct ProfitsReceived {\n\t\tuint uid;\n\t\tuint[] fromId;\n\t\taddress[] fromAddr;\n\t\tuint[] amount;\n\t\tuint[] level;\n\t}\n\n\tstruct ProfitsLost {\n\t\tuint uid;\n\t\tuint[] toId;\n\t\taddress[] toAddr;\n\t\tuint[] amount;\n\t\tuint[] level;\n\t}\n\n\tmodifier contractActive() {\n\t\trequire(contractStatus == true);\n\t\t_;\n\t}\n\tmodifier validLevelAmount(uint _level) {\n\t\trequire(msg.value == levelPrice[_level], 'Invalid level amount sent');\n\t\t_;\n\t}\n\tmodifier userRegistered() {\n\t\trequire(users[msg.sender].id != 0, 'User does not exist');\n\t\t_;\n\t}\n\tmodifier validReferrerID(uint _referrerID) {\n\t\trequire(_referrerID > 0 && _referrerID <= last_uid, 'Invalid referrer ID');\n\t\trequire(users[msg.sender].id != _referrerID, 'Refer ID cannot be same as User ID');\n\t\t_;\n\t}\n\tmodifier userNotRegistered() {\n\t\trequire(users[msg.sender].id == 0, 'User is already registered');\n\t\t_;\n\t}\n\tmodifier validLevel(uint _level) {\n\t\trequire(_level > 0 && _level <= maxLevel, 'Invalid level entered');\n\t\t_;\n\t}\n\tmodifier checkTotalSupply() {\n\t\trequire(_getTokenAmount(msg.value).add(totalSupply) < maxTokenAmount, \"Maximum token amount crossed\");\n\t\t_;\n\t}\n\tmodifier checkTotalSupplyWithAmount(uint amount) {\n\t\trequire(amount.add(totalSupply) < maxTokenAmount, \"Maximum token amount crossed\");\n\t\t_;\n\t}\n\tmodifier onlyCreator() {\n\t\trequire(msg.sender == creator, 'You are not the creator');\n\t\t_;\n\t}\n\n\tconstructor() public {\n\t\tcontractStatus = true;\n\t\tname = \"TronMatrix\";\n\t\tsymbol = \"TMX\";\n\t\ttotalSupply = 0;\n\t\tdecimals = 3;\n\t\trate = 100;\n\t\tmaxTokenAmount = 500000000 * (10 ** decimals);\n\t\tlevelDown = 11;\n\t\t// owner = 0x262e1f53533cD7C0AfCbe68250b7008fd6da2a67;\n\t\towner = msg.sender;\n\n\t\tlast_uid++;\n\t\tcreator = msg.sender;\n\t\tlevelPrice[1] = 500 * 1000000;\n\t\tlevelPrice[2] = 1500 * 1000000;\n\t\tlevelPrice[3] = 10000 * 1000000;\n\t\tlevelPrice[4] = 50000 * 1000000;\n\t\tlevelPrice[5] = 125000 * 1000000;\n\t\tlevelPrice[6] = 250000 * 1000000;\n\t\tuplines[1] = 5;\n\t\tuplines[2] = 6;\n\t\tuplines[3] = 7;\n\t\tuplines[4] = 8;\n\t\tuplines[5] = 9;\n\t\tuplines[6] = 10;\n\t\tincentive[1] = 90 * 1000000;\n\t\tincentive[2] = 205 * 1000000;\n\t\tincentive[3] = 1250 * 1000000;\n\t\tincentive[4] = 5550 * 1000000;\n\t\tincentive[5] = 12000 * 1000000;\n\t\tincentive[6] = 23500 * 1000000;\n\n\t\tusers[creator] = User({\n\t\tid : last_uid,\n\t\treferrerID : 0,\n\t\treferrals : new address[](0),\n\t\tcreated : block.timestamp\n\t\t});\n\t\tuserAddresses[last_uid] = creator;\n\n\t\tfor (uint i = 1; i <= maxLevel; i++) {\n\t\t\tusers[creator].levelExpiresAt[i] = 1 << 37;\n\t\t}\n\t}\n\n\tfunction changeLevelPrice1(uint newValue)\n\tpublic\n\tonlyCreator() {\n\t\tlevelPrice[1] = newValue;\n\t}\n\n\tfunction changeLevelPrice2(uint newValue)\n\tpublic\n\tonlyCreator() {\n\t\tlevelPrice[2] = newValue;\n\t}\n\n\tfunction changeLevelPrice3(uint newValue)\n\tpublic\n\tonlyCreator() {\n\t\tlevelPrice[3] = newValue;\n\t}\n\n\tfunction changeLevelPrice4(uint newValue)\n\tpublic\n\tonlyCreator() {\n\t\tlevelPrice[4] = newValue;\n\t}\n\n\tfunction changeLevelPrice5(uint newValue)\n\tpublic\n\tonlyCreator() {\n\t\tlevelPrice[5] = newValue;\n\t}\n\n\tfunction changeLevelPrice6(uint newValue)\n\tpublic\n\tonlyCreator() {\n\t\tlevelPrice[6] = newValue;\n\t}\n\n\tfunction changeUplines1(uint newValue)\n\tpublic\n\tonlyCreator() {\n\t\tuplines[1] = newValue;\n\t}\n\n\tfunction changeUplines2(uint newValue)\n\tpublic\n\tonlyCreator() {\n\t\tuplines[2] = newValue;\n\t}\n\n\tfunction changeUplines3(uint newValue)\n\tpublic\n\tonlyCreator() {\n\t\tuplines[3] = newValue;\n\t}\n\n\tfunction changeUplines4(uint newValue)\n\tpublic\n\tonlyCreator() {\n\t\tuplines[4] = newValue;\n\t}\n\n\tfunction changeUplines5(uint newValue)\n\tpublic\n\tonlyCreator() {\n\t\tuplines[5] = newValue;\n\t}\n\n\tfunction changeUplines6(uint newValue)\n\tpublic\n\tonlyCreator() {\n\t\tuplines[6] = newValue;\n\t}\n\n\tfunction changeIncentive1(uint newValue)\n\tpublic\n\tonlyCreator() {\n\t\tincentive[1] = newValue;\n\t}\n\n\tfunction changeIncentive2(uint newValue)\n\tpublic\n\tonlyCreator() {\n\t\tincentive[2] = newValue;\n\t}\n\n\tfunction changeIncentive3(uint newValue)\n\tpublic\n\tonlyCreator() {\n\t\tincentive[3] = newValue;\n\t}\n\n\tfunction changeIncentive4(uint newValue)\n\tpublic\n\tonlyCreator() {\n\t\tincentive[4] = newValue;\n\t}\n\n\tfunction changeIncentive5(uint newValue)\n\tpublic\n\tonlyCreator() {\n\t\tincentive[5] = newValue;\n\t}\n\n\tfunction changeIncentive6(uint newValue)\n\tpublic\n\tonlyCreator() {\n\t\tincentive[6] = newValue;\n\t}\n\n\tfunction changeContractStatus(bool newValue)\n\tpublic\n\tonlyCreator() {\n\t\tcontractStatus = newValue;\n\t}\n\n\tfunction changeLevelDown(uint newValue)\n\tpublic\n\tonlyCreator() {\n\t\tlevelDown = newValue;\n\t}\n\n\tfunction() external payable {\n\t\trevert();\n\t}\n\n\tfunction transfer(address receiver, uint amount) public {\n\t\trequire(amount <= balances[msg.sender], \"Insufficient balance.\");\n\n\t\tbalances[msg.sender] = balances[msg.sender].sub(amount);\n\t\tbalances[receiver] = balances[receiver].add(amount);\n\n\t\temit Transfer(msg.sender, receiver, amount, block.timestamp);\n\t}\n\n\tfunction mint(uint amount)\n\tpublic\n\tonlyCreator()\n\tcheckTotalSupplyWithAmount(amount) {\n\t\tbalances[creator] = balances[creator].add(amount);\n\t\ttotalSupply = totalSupply.add(amount);\n\t}\n\n\tfunction balanceOf(address _user) public view returns (uint) {\n\t\treturn balances[_user];\n\t}\n\n\tfunction _getTokenAmount(uint _weiAmount) internal view returns (uint) {\n\t\tuint tokenAmount = _weiAmount;\n\t\ttokenAmount = tokenAmount.mul(rate);\n\t\ttokenAmount = tokenAmount.div(100 * (10 ** decimals));\n\t\treturn tokenAmount;\n\t}\n\n\tfunction registerUser(uint _referrerID, uint randNum)\n\tpublic\n\tpayable\n\tuserNotRegistered()\n\tvalidReferrerID(_referrerID)\n\tcheckTotalSupply()\n\tcontractActive()\n\tvalidLevelAmount(1) {\n\t\tuint amount = _getTokenAmount(msg.value);\n\t\tbalances[msg.sender] = balances[msg.sender].add(amount);\n\t\ttotalSupply = totalSupply.add(amount);\n\n\t\tif (users[userAddresses[_referrerID]].referrals.length >= referralLimit) {\n\t\t\t_referrerID = users[findReferrer(userAddresses[_referrerID], true, randNum)].id;\n\t\t}\n\t\tlast_uid++;\n\t\tusers[msg.sender] = User({\n\t\tid : last_uid,\n\t\treferrerID : _referrerID,\n\t\treferrals : new address[](0),\n\t\tcreated : block.timestamp\n\t\t});\n\t\tuserAddresses[last_uid] = msg.sender;\n\t\tusers[msg.sender].levelExpiresAt[1] = block.timestamp + levelExpireTime;\n\t\tusers[userAddresses[_referrerID]].referrals.push(msg.sender);\n\n\t\ttransferLevelPayment(1, msg.sender);\n\n\t\temit RegisterUserEvent(msg.sender, userAddresses[_referrerID], block.timestamp);\n\t}\n\n\tfunction buyLevel(uint _level)\n\tpublic\n\tpayable\n\tuserRegistered()\n\tvalidLevel(_level)\n\tcheckTotalSupply()\n\tcontractActive()\n\tvalidLevelAmount(_level) {\n\t\tuint amount = _getTokenAmount(msg.value);\n\t\tbalances[msg.sender] = balances[msg.sender].add(amount);\n\t\ttotalSupply = totalSupply.add(amount);\n\n\t\tfor (uint l = _level - 1; l > 0; l--) {\n\t\t\trequire(getUserLevelExpiresAt(msg.sender, l) >= block.timestamp, 'Buy previous level first');\n\t\t}\n\t\tif (getUserLevelExpiresAt(msg.sender, _level) == 0) {\n\t\t\tusers[msg.sender].levelExpiresAt[_level] = block.timestamp + levelExpireTime;\n\t\t} else {\n\t\t\tusers[msg.sender].levelExpiresAt[_level] += levelExpireTime;\n\t\t}\n\n\t\ttransferLevelPayment(_level, msg.sender);\n\t\temit BuyLevelEvent(msg.sender, _level, block.timestamp);\n\t}\n\n\tfunction findReferrer(address _user, bool traverseDown, uint randNum)\n\tpublic\n\tview\n\treturns (address) {\n\t\tif (users[_user].referrals.length < referralLimit) {\n\t\t\treturn _user;\n\t\t}\n\n\t\tuint arraySize = 2 * ((2 ** levelDown) - 1);\n\t\tuint previousLineSize = 2 * ((2 ** (levelDown - 1)) - 1);\n\t\taddress referrer;\n\t\taddress[] memory referrals = new address[](arraySize);\n\t\treferrals[0] = users[_user].referrals[0];\n\t\treferrals[1] = users[_user].referrals[1];\n\n\t\tfor (uint i = 0; i < arraySize; i++) {\n\t\t\tif (users[referrals[i]].referrals.length < referralLimit) {\n\t\t\t\treferrer = referrals[i];\n\t\t\t\tbreak;\n\t\t\t}\n\n\t\t\tif (i < previousLineSize) {\n\t\t\t\treferrals[(i + 1) * 2] = users[referrals[i]].referrals[0];\n\t\t\t\treferrals[(i + 1) * 2 + 1] = users[referrals[i]].referrals[1];\n\t\t\t}\n\t\t}\n\n\t\tif (referrer == address(0) && traverseDown == true) {\n\t\t\tif (randNum >= previousLineSize && randNum < arraySize) {\n\t\t\t\taddress childAddress = findReferrer(referrals[randNum], false, randNum);\n\t\t\t\tif (childAddress != address(0)) {\n\t\t\t\t\treferrer = childAddress;\n\t\t\t\t}\n\t\t\t}\n\n\t\t\tif (referrer == address(0)) {\n\t\t\t\tfor (uint i = previousLineSize; i < arraySize; i++) {\n\t\t\t\t\taddress childAddress = findReferrer(referrals[i], false, randNum);\n\t\t\t\t\tif (childAddress != address(0)) {\n\t\t\t\t\t\treferrer = childAddress;\n\t\t\t\t\t\tbreak;\n\t\t\t\t\t}\n\t\t\t\t}\n\t\t\t}\n\t\t\trequire(referrer != address(0), 'Referrer not found');\n\t\t}\n\n\t\treturn referrer;\n\t}\n\n\tfunction transferLevelPayment(uint _level, address _user) internal {\n\t\taddress referrer;\n\t\tuint sentValue = 0;\n\n\t\tfor (uint i = 1; i <= uplines[_level]; i++) {\n\t\t\treferrer = getUserUpline(_user, i);\n\t\t\tif (referrer == address(0)) {\n\t\t\t\treferrer = owner;\n\t\t\t}\n\n\t\t\tif (users[referrer].levelExpiresAt[_level] == 0 || users[referrer].levelExpiresAt[_level] < block.timestamp) {\n\t\t\t\tprofitsLost[referrer].uid = users[referrer].id;\n\t\t\t\tprofitsLost[referrer].toId.push(users[msg.sender].id);\n\t\t\t\tprofitsLost[referrer].toAddr.push(msg.sender);\n\t\t\t\tprofitsLost[referrer].amount.push(incentive[_level]);\n\t\t\t\tprofitsLost[referrer].level.push(_level);\n\n\t\t\t\taddress(uint160(owner)).transfer(incentive[_level]);\n\t\t\t\temit LostLevelProfitEvent(_user, referrer, _level, block.timestamp);\n\t\t\t}\n\t\t\telse {\n\t\t\t\tprofitsReceived[referrer].uid = users[referrer].id;\n\t\t\t\tprofitsReceived[referrer].fromId.push(users[msg.sender].id);\n\t\t\t\tprofitsReceived[referrer].fromAddr.push(msg.sender);\n\t\t\t\tprofitsReceived[referrer].amount.push(incentive[_level]);\n\t\t\t\tprofitsReceived[referrer].level.push(_level);\n\n\t\t\t\taddress(uint160(referrer)).transfer(incentive[_level]);\n\t\t\t\temit GetLevelProfitEvent(_user, referrer, _level, block.timestamp);\n\t\t\t}\n\n\t\t\tsentValue += incentive[_level];\n\t\t}\n\n\t\taddress(uint160(owner)).transfer(msg.value - sentValue);\n\t}\n\n\tfunction getUserUpline(address _user, uint height)\n\tpublic\n\tview\n\treturns (address) {\n\t\tif (height <= 0 || _user == address(0)) {\n\t\t\treturn _user;\n\t\t}\n\t\treturn getUserUpline(userAddresses[users[_user].referrerID], height - 1);\n\t}\n\n\tfunction getUser(address _user)\n\tpublic\n\tview\n\treturns (uint, uint, address[] memory, uint) {\n\t\treturn (users[_user].id, users[_user].referrerID, users[_user].referrals, users[_user].created);\n\t}\n\n\tfunction getUserReferrals(address _user)\n\tpublic\n\tview\n\treturns (address[] memory) {\n\t\treturn users[_user].referrals;\n\t}\n\n\tfunction getUserLevelExpiresAt(address _user, uint _level)\n\tpublic\n\tview\n\treturns (uint) {\n\t\treturn users[_user].levelExpiresAt[_level];\n\t}\n\n\tfunction getUserProfits(address _user)\n\tpublic\n\tview\n\treturns (uint[] memory, address[] memory, uint[] memory, uint[] memory){\n\t\treturn (profitsReceived[_user].fromId, profitsReceived[_user].fromAddr, profitsReceived[_user].amount, profitsReceived[_user].level);\n\t}\n\n\tfunction getUserLosts(address _user)\n\tpublic\n\tview\n\treturns (uint[] memory, address[] memory, uint[] memory, uint[] memory){\n\t\treturn (profitsLost[_user].toId, profitsLost[_user].toAddr, profitsLost[_user].amount, profitsLost[_user].level);\n\t}\n\n\tfunction getUserLevel(address _user) public view returns (uint) {\n\t\tif (getUserLevelExpiresAt(_user, 1) < block.timestamp) {\n\t\t\treturn (0);\n\t\t}\n\t\telse if (getUserLevelExpiresAt(_user, 2) < block.timestamp) {\n\t\t\treturn (1);\n\t\t}\n\t\telse if (getUserLevelExpiresAt(_user, 3) < block.timestamp) {\n\t\t\treturn (2);\n\t\t}\n\t\telse if (getUserLevelExpiresAt(_user, 4) < block.timestamp) {\n\t\t\treturn (3);\n\t\t}\n\t\telse if (getUserLevelExpiresAt(_user, 5) < block.timestamp) {\n\t\t\treturn (4);\n\t\t}\n\t\telse if (getUserLevelExpiresAt(_user, 6) < block.timestamp) {\n\t\t\treturn (5);\n\t\t}\n\t\telse {\n\t\t\treturn (6);\n\t\t}\n\t}\n\n\tfunction getUserDetails(address _user) public view returns (uint, uint) {\n\t\tif (getUserLevelExpiresAt(_user, 1) < block.timestamp) {\n\t\t\treturn (0, users[_user].id);\n\t\t}\n\t\telse if (getUserLevelExpiresAt(_user, 2) < block.timestamp) {\n\t\t\treturn (1, users[_user].id);\n\t\t}\n\t\telse if (getUserLevelExpiresAt(_user, 3) < block.timestamp) {\n\t\t\treturn (2, users[_user].id);\n\t\t}\n\t\telse if (getUserLevelExpiresAt(_user, 4) < block.timestamp) {\n\t\t\treturn (3, users[_user].id);\n\t\t}\n\t\telse if (getUserLevelExpiresAt(_user, 5) < block.timestamp) {\n\t\t\treturn (4, users[_user].id);\n\t\t}\n\t\telse if (getUserLevelExpiresAt(_user, 6) < block.timestamp) {\n\t\t\treturn (5, users[_user].id);\n\t\t}\n\t\telse {\n\t\t\treturn (6, users[_user].id);\n\t\t}\n\t}\n\n}",
  "sourcePath": "/Users/apple/Documents/projects/tronmatrix/contracts/TronMatrix.sol",
  "compiler": {
    "name": "solc",
    "version": "0.5.8+commit.1f148fe1.Emscripten.clang"
  },
  "schemaVersion": "2.0.1",
  "updatedAt": "2020-09-25T00:25:15.941Z"
}